{
  "_format": "hh-sol-artifact-1",
  "contractName": "Inventory",
  "sourceName": "contracts/Inventory.sol",
  "abi": [
    {
      "anonymous": false,
      "inputs": [
        {
          "indexed": false,
          "internalType": "address",
          "name": "buyer",
          "type": "address"
        },
        {
          "indexed": false,
          "internalType": "uint256",
          "name": "amount",
          "type": "uint256"
        }
      ],
      "name": "ItemPurchased",
      "type": "event"
    },
    {
      "inputs": [
        {
          "internalType": "uint256",
          "name": "_index",
          "type": "uint256"
        }
      ],
      "name": "buyDataSet",
      "outputs": [],
      "stateMutability": "payable",
      "type": "function"
    },
    {
      "inputs": [
        {
          "internalType": "address",
          "name": "_owner",
          "type": "address"
        },
        {
          "internalType": "string",
          "name": "_displayName",
          "type": "string"
        },
        {
          "internalType": "string",
          "name": "_FID",
          "type": "string"
        },
        {
          "internalType": "string",
          "name": "_description",
          "type": "string"
        },
        {
          "internalType": "uint256",
          "name": "_cost",
          "type": "uint256"
        }
      ],
      "name": "createDataSet",
      "outputs": [
        {
          "internalType": "uint256",
          "name": "",
          "type": "uint256"
        }
      ],
      "stateMutability": "nonpayable",
      "type": "function"
    },
    {
      "inputs": [],
      "name": "getAllDataSets",
      "outputs": [
        {
          "components": [
            {
              "internalType": "address payable",
              "name": "owner",
              "type": "address"
            },
            {
              "internalType": "string",
              "name": "displayName",
              "type": "string"
            },
            {
              "internalType": "string",
              "name": "FID",
              "type": "string"
            },
            {
              "internalType": "string",
              "name": "description",
              "type": "string"
            },
            {
              "internalType": "uint256",
              "name": "cost",
              "type": "uint256"
            },
            {
              "internalType": "address[]",
              "name": "authorizedUsers",
              "type": "address[]"
            }
          ],
          "internalType": "struct Inventory.DataSet[]",
          "name": "",
          "type": "tuple[]"
        }
      ],
      "stateMutability": "view",
      "type": "function"
    },
    {
      "inputs": [
        {
          "internalType": "uint256",
          "name": "_index",
          "type": "uint256"
        }
      ],
      "name": "getAuthorizedUsers",
      "outputs": [
        {
          "internalType": "address[]",
          "name": "",
          "type": "address[]"
        }
      ],
      "stateMutability": "view",
      "type": "function"
    },
    {
      "inputs": [
        {
          "internalType": "uint256",
          "name": "_index",
          "type": "uint256"
        }
      ],
      "name": "getDataSet",
      "outputs": [
        {
          "components": [
            {
              "internalType": "address payable",
              "name": "owner",
              "type": "address"
            },
            {
              "internalType": "string",
              "name": "displayName",
              "type": "string"
            },
            {
              "internalType": "string",
              "name": "FID",
              "type": "string"
            },
            {
              "internalType": "string",
              "name": "description",
              "type": "string"
            },
            {
              "internalType": "uint256",
              "name": "cost",
              "type": "uint256"
            },
            {
              "internalType": "address[]",
              "name": "authorizedUsers",
              "type": "address[]"
            }
          ],
          "internalType": "struct Inventory.DataSet",
          "name": "",
          "type": "tuple"
        }
      ],
      "stateMutability": "view",
      "type": "function"
    },
    {
      "inputs": [
        {
          "internalType": "address",
          "name": "_user",
          "type": "address"
        }
      ],
      "name": "getPurchasedSets",
      "outputs": [
        {
          "components": [
            {
              "internalType": "address payable",
              "name": "owner",
              "type": "address"
            },
            {
              "internalType": "string",
              "name": "displayName",
              "type": "string"
            },
            {
              "internalType": "string",
              "name": "FID",
              "type": "string"
            },
            {
              "internalType": "string",
              "name": "description",
              "type": "string"
            },
            {
              "internalType": "uint256",
              "name": "cost",
              "type": "uint256"
            },
            {
              "internalType": "address[]",
              "name": "authorizedUsers",
              "type": "address[]"
            }
          ],
          "internalType": "struct Inventory.DataSet[]",
          "name": "",
          "type": "tuple[]"
        }
      ],
      "stateMutability": "view",
      "type": "function"
    },
    {
      "inputs": [],
      "name": "numberOfDataSets",
      "outputs": [
        {
          "internalType": "uint256",
          "name": "",
          "type": "uint256"
        }
      ],
      "stateMutability": "view",
      "type": "function"
    },
    {
      "inputs": [
        {
          "internalType": "uint256",
          "name": "",
          "type": "uint256"
        }
      ],
      "name": "sets",
      "outputs": [
        {
          "internalType": "address payable",
          "name": "owner",
          "type": "address"
        },
        {
          "internalType": "string",
          "name": "displayName",
          "type": "string"
        },
        {
          "internalType": "string",
          "name": "FID",
          "type": "string"
        },
        {
          "internalType": "string",
          "name": "description",
          "type": "string"
        },
        {
          "internalType": "uint256",
          "name": "cost",
          "type": "uint256"
        }
      ],
      "stateMutability": "view",
      "type": "function"
    }
  ],
  "bytecode": "0x6080604052600060015534801561001557600080fd5b5061121f806100256000396000f3fe60806040526004361061007b5760003560e01c8063bb1af6061161004e578063bb1af6061461011c578063bdaac0561461013c578063d32018cb14610169578063d35e05861461017e57600080fd5b806308dd0bc3146100805780635b227f9b146100a95780639a33fc17146100da578063ad6cab3f146100ef575b600080fd5b34801561008c57600080fd5b5061009660015481565b6040519081526020015b60405180910390f35b3480156100b557600080fd5b506100c96100c4366004610d91565b6101ab565b6040516100a0959493929190610df7565b6100ed6100e8366004610d91565b61038f565b005b3480156100fb57600080fd5b5061010f61010a366004610e70565b610437565b6040516100a09190610f4a565b34801561012857600080fd5b5061009661013736600461104f565b610540565b34801561014857600080fd5b5061015c610157366004610d91565b6106d3565b6040516100a091906110f0565b34801561017557600080fd5b5061010f610981565b34801561018a57600080fd5b5061019e610199366004610d91565b610c18565b6040516100a09190611103565b600081815481106101bb57600080fd5b6000918252602090912060069091020180546001820180546001600160a01b039092169350906101ea90611150565b80601f016020809104026020016040519081016040528092919081815260200182805461021690611150565b80156102635780601f1061023857610100808354040283529160200191610263565b820191906000526020600020905b81548152906001019060200180831161024657829003601f168201915b50505050509080600201805461027890611150565b80601f01602080910402602001604051908101604052809291908181526020018280546102a490611150565b80156102f15780601f106102c6576101008083540402835291602001916102f1565b820191906000526020600020905b8154815290600101906020018083116102d457829003601f168201915b50505050509080600301805461030690611150565b80601f016020809104026020016040519081016040528092919081815260200182805461033290611150565b801561037f5780601f106103545761010080835404028352916020019161037f565b820191906000526020600020905b81548152906001019060200180831161036257829003601f168201915b5050505050908060040154905085565b600034905060008083815481106103a8576103a861118b565b600091825260208220600690910201805460048201546040519294506001600160a01b0390911692839282156108fc029291818181858888f193505050501580156103f7573d6000803e3d6000fd5b5060408051338152602081018590527f792fe07c0f3ce4ef42df79c4a2b07925168cddbaabf7a7ef1351f027a3760313910160405180910390a150505050565b6060600080610444610981565b9050606060005b60015481116105375760005b8382815181106104695761046961118b565b602002602001015160a001515181116105245783828151811061048e5761048e61118b565b602002602001015160a0015181815181106104ab576104ab61118b565b60200260200101516001600160a01b0316876001600160a01b03161415610512578382815181106104de576104de61118b565b60200260200101518386815181106104f8576104f861118b565b6020026020010181905250848061050e906111b7565b9550505b8061051c816111b7565b915050610457565b508061052f816111b7565b91505061044b565b50949350505050565b6040805160018082528183019092526000918291906020808301908036833701905050905086816000815181106105795761057961118b565b6001600160a01b039283166020918202929092018101919091526040805160c0810182528a841681528083018a8152918101899052606081018890526080810187905260a081018590526000805460018101825590805281517f290decd9548b62a8d60345a988386fc84ba6bc95484008f6362f93160ef3e563600690920291820180546001600160a01b0319169190961617855591518051919493610644937f290decd9548b62a8d60345a988386fc84ba6bc95484008f6362f93160ef3e5640192910190610ca3565b5060408201518051610660916002840191602090910190610ca3565b506060820151805161067c916003840191602090910190610ca3565b506080820151600482015560a082015180516106a2916005840191602090910190610d27565b505060018054915060006106b5836111b7565b9190505550600180546106c891906111d2565b979650505050505050565b6107156040518060c0016040528060006001600160a01b0316815260200160608152602001606081526020016060815260200160008152602001606081525090565b600082815481106107285761072861118b565b60009182526020918290206040805160c0810190915260069092020180546001600160a01b03168252600181018054929391929184019161076890611150565b80601f016020809104026020016040519081016040528092919081815260200182805461079490611150565b80156107e15780601f106107b6576101008083540402835291602001916107e1565b820191906000526020600020905b8154815290600101906020018083116107c457829003601f168201915b505050505081526020016002820180546107fa90611150565b80601f016020809104026020016040519081016040528092919081815260200182805461082690611150565b80156108735780601f1061084857610100808354040283529160200191610873565b820191906000526020600020905b81548152906001019060200180831161085657829003601f168201915b5050505050815260200160038201805461088c90611150565b80601f01602080910402602001604051908101604052809291908181526020018280546108b890611150565b80156109055780601f106108da57610100808354040283529160200191610905565b820191906000526020600020905b8154815290600101906020018083116108e857829003601f168201915b50505050508152602001600482015481526020016005820180548060200260200160405190810160405280929190818152602001828054801561097157602002820191906000526020600020905b81546001600160a01b03168152600190910190602001808311610953575b5050505050815250509050919050565b60606000805480602002602001604051908101604052809291908181526020016000905b82821015610c0f5760008481526020908190206040805160c081019091526006850290910180546001600160a01b0316825260018101805492939192918401916109ee90611150565b80601f0160208091040260200160405190810160405280929190818152602001828054610a1a90611150565b8015610a675780601f10610a3c57610100808354040283529160200191610a67565b820191906000526020600020905b815481529060010190602001808311610a4a57829003601f168201915b50505050508152602001600282018054610a8090611150565b80601f0160208091040260200160405190810160405280929190818152602001828054610aac90611150565b8015610af95780601f10610ace57610100808354040283529160200191610af9565b820191906000526020600020905b815481529060010190602001808311610adc57829003601f168201915b50505050508152602001600382018054610b1290611150565b80601f0160208091040260200160405190810160405280929190818152602001828054610b3e90611150565b8015610b8b5780601f10610b6057610100808354040283529160200191610b8b565b820191906000526020600020905b815481529060010190602001808311610b6e57829003601f168201915b505050505081526020016004820154815260200160058201805480602002602001604051908101604052809291908181526020018280548015610bf757602002820191906000526020600020905b81546001600160a01b03168152600190910190602001808311610bd9575b505050505081525050815260200190600101906109a5565b50505050905090565b60606000808381548110610c2e57610c2e61118b565b9060005260206000209060060201905080600501805480602002602001604051908101604052809291908181526020018280548015610c9657602002820191906000526020600020905b81546001600160a01b03168152600190910190602001808311610c78575b5050505050915050919050565b828054610caf90611150565b90600052602060002090601f016020900481019282610cd15760008555610d17565b82601f10610cea57805160ff1916838001178555610d17565b82800160010185558215610d17579182015b82811115610d17578251825591602001919060010190610cfc565b50610d23929150610d7c565b5090565b828054828255906000526020600020908101928215610d17579160200282015b82811115610d1757825182546001600160a01b0319166001600160a01b03909116178255602090920191600190910190610d47565b5b80821115610d235760008155600101610d7d565b600060208284031215610da357600080fd5b5035919050565b6000815180845260005b81811015610dd057602081850181015186830182015201610db4565b81811115610de2576000602083870101525b50601f01601f19169290920160200192915050565b6001600160a01b038616815260a060208201819052600090610e1b90830187610daa565b8281036040840152610e2d8187610daa565b90508281036060840152610e418186610daa565b9150508260808301529695505050505050565b80356001600160a01b0381168114610e6b57600080fd5b919050565b600060208284031215610e8257600080fd5b610e8b82610e54565b9392505050565b600060018060a01b0380835116845260208084015160c082870152610eba60c0870182610daa565b905060408501518682036040880152610ed38282610daa565b91505060608501518682036060880152610eed8282610daa565b9150506080850151608087015260a085015186820360a088015281815180845284840191508483019350600092505b80831015610f3e57835186168252928401926001929092019190840190610f1c565b50979650505050505050565b6000602080830181845280855180835260408601915060408160051b870101925083870160005b82811015610f9f57603f19888603018452610f8d858351610e92565b94509285019290850190600101610f71565b5092979650505050505050565b634e487b7160e01b600052604160045260246000fd5b600082601f830112610fd357600080fd5b813567ffffffffffffffff80821115610fee57610fee610fac565b604051601f8301601f19908116603f0116810190828211818310171561101657611016610fac565b8160405283815286602085880101111561102f57600080fd5b836020870160208301376000602085830101528094505050505092915050565b600080600080600060a0868803121561106757600080fd5b61107086610e54565b9450602086013567ffffffffffffffff8082111561108d57600080fd5b61109989838a01610fc2565b955060408801359150808211156110af57600080fd5b6110bb89838a01610fc2565b945060608801359150808211156110d157600080fd5b506110de88828901610fc2565b95989497509295608001359392505050565b602081526000610e8b6020830184610e92565b6020808252825182820181905260009190848201906040850190845b818110156111445783516001600160a01b03168352928401929184019160010161111f565b50909695505050505050565b600181811c9082168061116457607f821691505b6020821081141561118557634e487b7160e01b600052602260045260246000fd5b50919050565b634e487b7160e01b600052603260045260246000fd5b634e487b7160e01b600052601160045260246000fd5b60006000198214156111cb576111cb6111a1565b5060010190565b6000828210156111e4576111e46111a1565b50039056fea26469706673582212208ca7b39d650947836f4a8acaec4f1e2d5360b8b23ea264e4bc036321086d86f964736f6c63430008090033",
  "linkReferences": {},
  "deployedLinkReferences": {}
}