{
  "_format": "hh-sol-artifact-1",
  "contractName": "Inventory",
  "sourceName": "contracts/Inventory.sol",
  "abi": [
    {
      "anonymous": false,
      "inputs": [
        {
          "indexed": false,
          "internalType": "address",
          "name": "buyer",
          "type": "address"
        },
        {
          "indexed": false,
          "internalType": "uint256",
          "name": "amount",
          "type": "uint256"
        }
      ],
      "name": "ItemPurchased",
      "type": "event"
    },
    {
      "inputs": [
        {
          "internalType": "string",
          "name": "_FID",
          "type": "string"
        }
      ],
      "name": "buyDataSet",
      "outputs": [],
      "stateMutability": "payable",
      "type": "function"
    },
    {
      "inputs": [
        {
          "internalType": "address",
          "name": "_owner",
          "type": "address"
        },
        {
          "internalType": "string",
          "name": "_displayName",
          "type": "string"
        },
        {
          "internalType": "string",
          "name": "_FID",
          "type": "string"
        },
        {
          "internalType": "string",
          "name": "_description",
          "type": "string"
        },
        {
          "internalType": "uint256",
          "name": "_cost",
          "type": "uint256"
        },
        {
          "internalType": "string",
          "name": "_image",
          "type": "string"
        }
      ],
      "name": "createDataSet",
      "outputs": [
        {
          "internalType": "uint256",
          "name": "",
          "type": "uint256"
        }
      ],
      "stateMutability": "nonpayable",
      "type": "function"
    },
    {
      "inputs": [],
      "name": "getAllDataSets",
      "outputs": [
        {
          "components": [
            {
              "internalType": "address payable",
              "name": "owner",
              "type": "address"
            },
            {
              "internalType": "string",
              "name": "displayName",
              "type": "string"
            },
            {
              "internalType": "string",
              "name": "FID",
              "type": "string"
            },
            {
              "internalType": "string",
              "name": "description",
              "type": "string"
            },
            {
              "internalType": "uint256",
              "name": "cost",
              "type": "uint256"
            },
            {
              "internalType": "string",
              "name": "image",
              "type": "string"
            },
            {
              "internalType": "address[]",
              "name": "authorizedUsers",
              "type": "address[]"
            }
          ],
          "internalType": "struct Inventory.DataSet[]",
          "name": "",
          "type": "tuple[]"
        }
      ],
      "stateMutability": "view",
      "type": "function"
    },
    {
      "inputs": [
        {
          "internalType": "string",
          "name": "_FID",
          "type": "string"
        }
      ],
      "name": "getAuthorizedUsers",
      "outputs": [
        {
          "internalType": "address[]",
          "name": "",
          "type": "address[]"
        }
      ],
      "stateMutability": "view",
      "type": "function"
    },
    {
      "inputs": [
        {
          "internalType": "string",
          "name": "_FID",
          "type": "string"
        }
      ],
      "name": "getDataSet",
      "outputs": [
        {
          "components": [
            {
              "internalType": "address payable",
              "name": "owner",
              "type": "address"
            },
            {
              "internalType": "string",
              "name": "displayName",
              "type": "string"
            },
            {
              "internalType": "string",
              "name": "FID",
              "type": "string"
            },
            {
              "internalType": "string",
              "name": "description",
              "type": "string"
            },
            {
              "internalType": "uint256",
              "name": "cost",
              "type": "uint256"
            },
            {
              "internalType": "string",
              "name": "image",
              "type": "string"
            },
            {
              "internalType": "address[]",
              "name": "authorizedUsers",
              "type": "address[]"
            }
          ],
          "internalType": "struct Inventory.DataSet",
          "name": "",
          "type": "tuple"
        }
      ],
      "stateMutability": "view",
      "type": "function"
    },
    {
      "inputs": [
        {
          "internalType": "address",
          "name": "_user",
          "type": "address"
        }
      ],
      "name": "getPurchasedSets",
      "outputs": [
        {
          "components": [
            {
              "internalType": "address payable",
              "name": "owner",
              "type": "address"
            },
            {
              "internalType": "string",
              "name": "displayName",
              "type": "string"
            },
            {
              "internalType": "string",
              "name": "FID",
              "type": "string"
            },
            {
              "internalType": "string",
              "name": "description",
              "type": "string"
            },
            {
              "internalType": "uint256",
              "name": "cost",
              "type": "uint256"
            },
            {
              "internalType": "string",
              "name": "image",
              "type": "string"
            },
            {
              "internalType": "address[]",
              "name": "authorizedUsers",
              "type": "address[]"
            }
          ],
          "internalType": "struct Inventory.DataSet[]",
          "name": "",
          "type": "tuple[]"
        }
      ],
      "stateMutability": "view",
      "type": "function"
    },
    {
      "inputs": [],
      "name": "numberOfDataSets",
      "outputs": [
        {
          "internalType": "uint256",
          "name": "",
          "type": "uint256"
        }
      ],
      "stateMutability": "view",
      "type": "function"
    },
    {
      "inputs": [
        {
          "internalType": "uint256",
          "name": "",
          "type": "uint256"
        }
      ],
      "name": "sets",
      "outputs": [
        {
          "internalType": "address payable",
          "name": "owner",
          "type": "address"
        },
        {
          "internalType": "string",
          "name": "displayName",
          "type": "string"
        },
        {
          "internalType": "string",
          "name": "FID",
          "type": "string"
        },
        {
          "internalType": "string",
          "name": "description",
          "type": "string"
        },
        {
          "internalType": "uint256",
          "name": "cost",
          "type": "uint256"
        },
        {
          "internalType": "string",
          "name": "image",
          "type": "string"
        }
      ],
      "stateMutability": "view",
      "type": "function"
    }
  ],
  "bytecode": "0x6080604052600060015534801561001557600080fd5b50611568806100256000396000f3fe60806040526004361061007b5760003560e01c8063956fd7371161004e578063956fd73714610110578063ad6cab3f1461013d578063ad9fd9811461016a578063d32018cb1461019757600080fd5b806308dd0bc3146100805780635b227f9b146100a9578063644c8e92146100db57806382ac6dec146100f0575b600080fd5b34801561008c57600080fd5b5061009660015481565b6040519081526020015b60405180910390f35b3480156100b557600080fd5b506100c96100c4366004610fb6565b6101ac565b6040516100a09695949392919061101c565b6100ee6100e9366004611130565b61040b565b005b3480156100fc57600080fd5b5061009661010b366004611189565b610542565b34801561011c57600080fd5b5061013061012b366004611130565b6105fc565b6040516100a0919061131f565b34801561014957600080fd5b5061015d610158366004611339565b610980565b6040516100a09190611354565b34801561017657600080fd5b5061018a610185366004611130565b610a89565b6040516100a091906113b6565b3480156101a357600080fd5b5061015d610b50565b600060208190529081526040902080546001820180546001600160a01b0390921692916101d890611403565b80601f016020809104026020016040519081016040528092919081815260200182805461020490611403565b80156102515780601f1061022657610100808354040283529160200191610251565b820191906000526020600020905b81548152906001019060200180831161023457829003601f168201915b50505050509080600201805461026690611403565b80601f016020809104026020016040519081016040528092919081815260200182805461029290611403565b80156102df5780601f106102b4576101008083540402835291602001916102df565b820191906000526020600020905b8154815290600101906020018083116102c257829003601f168201915b5050505050908060030180546102f490611403565b80601f016020809104026020016040519081016040528092919081815260200182805461032090611403565b801561036d5780601f106103425761010080835404028352916020019161036d565b820191906000526020600020905b81548152906001019060200180831161035057829003601f168201915b50505050509080600401549080600501805461038890611403565b80601f01602080910402602001604051908101604052809291908181526020018280546103b490611403565b80156104015780601f106103d657610100808354040283529160200191610401565b820191906000526020600020905b8154815290600101906020018083116103e457829003601f168201915b5050505050905086565b3460015b600154811161053d576000818152602081905260409081902090516104379160020190611438565b60405180910390208380519060200120141561052b576000818152602081905260409020805460048201546001600160a01b039091169084146104ba5760405162461bcd60e51b8152602060048201526016602482015275496e636f727265637420616d6f756e7420706169642160501b60448201526064015b60405180910390fd5b6040516001600160a01b038216903480156108fc02916000818181858888f193505050501580156104ef573d6000803e3d6000fd5b50604080513381523460208201527f792fe07c0f3ce4ef42df79c4a2b07925168cddbaabf7a7ef1351f027a3760313910160405180910390a150505b80610535816114ea565b91505061040f565b505050565b60018054600090815260208181526040822080546001600160a01b0319166001600160a01b038b1617815588519293909261058392918401918a0190610ed7565b5085516105999060028301906020890190610ed7565b5084516105af9060038301906020880190610ed7565b506004810184905582516105cc9060058301906020860190610ed7565b50600180549060006105dd836114ea565b9190505550600180546105f09190611505565b98975050505050505050565b610604610f5b565b60015b60015481116109435760008181526020819052604090819020905161062f9160020190611438565b6040518091039020838051906020012014156109315760008181526020818152604091829020825160e0810190935280546001600160a01b031683526001810180549193928492908401919061068490611403565b80601f01602080910402602001604051908101604052809291908181526020018280546106b090611403565b80156106fd5780601f106106d2576101008083540402835291602001916106fd565b820191906000526020600020905b8154815290600101906020018083116106e057829003601f168201915b5050505050815260200160028201805461071690611403565b80601f016020809104026020016040519081016040528092919081815260200182805461074290611403565b801561078f5780601f106107645761010080835404028352916020019161078f565b820191906000526020600020905b81548152906001019060200180831161077257829003601f168201915b505050505081526020016003820180546107a890611403565b80601f01602080910402602001604051908101604052809291908181526020018280546107d490611403565b80156108215780601f106107f657610100808354040283529160200191610821565b820191906000526020600020905b81548152906001019060200180831161080457829003601f168201915b505050505081526020016004820154815260200160058201805461084490611403565b80601f016020809104026020016040519081016040528092919081815260200182805461087090611403565b80156108bd5780601f10610892576101008083540402835291602001916108bd565b820191906000526020600020905b8154815290600101906020018083116108a057829003601f168201915b505050505081526020016006820180548060200260200160405190810160405280929190818152602001828054801561091f57602002820191906000526020600020905b81546001600160a01b03168152600190910190602001808311610901575b50505050508152505092505050919050565b8061093b816114ea565b915050610607565b5060405162461bcd60e51b815260206004820152601160248201527011185d185cd95d081b9bdd08199bdd5b99607a1b60448201526064016104b1565b606060008061098d610b50565b9050606060015b6001548111610a805760015b8382815181106109b2576109b261151c565b602002602001015160c00151518111610a6d578382815181106109d7576109d761151c565b602002602001015160c0015181815181106109f4576109f461151c565b60200260200101516001600160a01b0316876001600160a01b03161415610a5b57838281518110610a2757610a2761151c565b6020026020010151838681518110610a4157610a4161151c565b60200260200101819052508480610a57906114ea565b9550505b80610a65816114ea565b9150506109a0565b5080610a78816114ea565b915050610994565b50949350505050565b606060015b600154811161094357600081815260208190526040908190209051610ab69160020190611438565b604051809103902083805190602001201415610b3e5760008181526020818152604091829020600681018054845181850281018501909552808552919392909190830182828015610b3057602002820191906000526020600020905b81546001600160a01b03168152600190910190602001808311610b12575b505050505092505050919050565b80610b48816114ea565b915050610a8e565b6060600060015467ffffffffffffffff811115610b6f57610b6f61108d565b604051908082528060200260200182016040528015610ba857816020015b610b95610f5b565b815260200190600190039081610b8d5790505b50905060015b6001548111610ed15760008181526020818152604091829020825160e0810190935280546001600160a01b031683526001810180549192840191610bf190611403565b80601f0160208091040260200160405190810160405280929190818152602001828054610c1d90611403565b8015610c6a5780601f10610c3f57610100808354040283529160200191610c6a565b820191906000526020600020905b815481529060010190602001808311610c4d57829003601f168201915b50505050508152602001600282018054610c8390611403565b80601f0160208091040260200160405190810160405280929190818152602001828054610caf90611403565b8015610cfc5780601f10610cd157610100808354040283529160200191610cfc565b820191906000526020600020905b815481529060010190602001808311610cdf57829003601f168201915b50505050508152602001600382018054610d1590611403565b80601f0160208091040260200160405190810160405280929190818152602001828054610d4190611403565b8015610d8e5780601f10610d6357610100808354040283529160200191610d8e565b820191906000526020600020905b815481529060010190602001808311610d7157829003601f168201915b5050505050815260200160048201548152602001600582018054610db190611403565b80601f0160208091040260200160405190810160405280929190818152602001828054610ddd90611403565b8015610e2a5780601f10610dff57610100808354040283529160200191610e2a565b820191906000526020600020905b815481529060010190602001808311610e0d57829003601f168201915b5050505050815260200160068201805480602002602001604051908101604052809291908181526020018280548015610e8c57602002820191906000526020600020905b81546001600160a01b03168152600190910190602001808311610e6e575b50505050508152505082600183610ea39190611505565b81518110610eb357610eb361151c565b60200260200101819052508080610ec9906114ea565b915050610bae565b50919050565b828054610ee390611403565b90600052602060002090601f016020900481019282610f055760008555610f4b565b82601f10610f1e57805160ff1916838001178555610f4b565b82800160010185558215610f4b579182015b82811115610f4b578251825591602001919060010190610f30565b50610f57929150610fa1565b5090565b6040518060e0016040528060006001600160a01b031681526020016060815260200160608152602001606081526020016000815260200160608152602001606081525090565b5b80821115610f575760008155600101610fa2565b600060208284031215610fc857600080fd5b5035919050565b6000815180845260005b81811015610ff557602081850181015186830182015201610fd9565b81811115611007576000602083870101525b50601f01601f19169290920160200192915050565b6001600160a01b038716815260c06020820181905260009061104090830188610fcf565b82810360408401526110528188610fcf565b905082810360608401526110668187610fcf565b905084608084015282810360a08401526110808185610fcf565b9998505050505050505050565b634e487b7160e01b600052604160045260246000fd5b600082601f8301126110b457600080fd5b813567ffffffffffffffff808211156110cf576110cf61108d565b604051601f8301601f19908116603f011681019082821181831017156110f7576110f761108d565b8160405283815286602085880101111561111057600080fd5b836020870160208301376000602085830101528094505050505092915050565b60006020828403121561114257600080fd5b813567ffffffffffffffff81111561115957600080fd5b611165848285016110a3565b949350505050565b80356001600160a01b038116811461118457600080fd5b919050565b60008060008060008060c087890312156111a257600080fd5b6111ab8761116d565b9550602087013567ffffffffffffffff808211156111c857600080fd5b6111d48a838b016110a3565b965060408901359150808211156111ea57600080fd5b6111f68a838b016110a3565b9550606089013591508082111561120c57600080fd5b6112188a838b016110a3565b94506080890135935060a089013591508082111561123557600080fd5b5061124289828a016110a3565b9150509295509295509295565b600060018060a01b0380835116845260208084015160e08287015261127760e0870182610fcf565b9050604085015186820360408801526112908282610fcf565b915050606085015186820360608801526112aa8282610fcf565b9150506080850151608087015260a085015186820360a08801526112ce8282610fcf565b60c087810151898303918a01919091528051808352908501935060009250908401905b80831015611313578351861682529284019260019290920191908401906112f1565b50979650505050505050565b602081526000611332602083018461124f565b9392505050565b60006020828403121561134b57600080fd5b6113328261116d565b6000602080830181845280855180835260408601915060408160051b870101925083870160005b828110156113a957603f1988860301845261139785835161124f565b9450928501929085019060010161137b565b5092979650505050505050565b6020808252825182820181905260009190848201906040850190845b818110156113f75783516001600160a01b0316835292840192918401916001016113d2565b50909695505050505050565b600181811c9082168061141757607f821691505b60208210811415610ed157634e487b7160e01b600052602260045260246000fd5b600080835481600182811c91508083168061145457607f831692505b602080841082141561147457634e487b7160e01b86526022600452602486fd5b8180156114885760018114611499576114c6565b60ff198616895284890196506114c6565b60008a81526020902060005b868110156114be5781548b8201529085019083016114a5565b505084890196505b509498975050505050505050565b634e487b7160e01b600052601160045260246000fd5b60006000198214156114fe576114fe6114d4565b5060010190565b600082821015611517576115176114d4565b500390565b634e487b7160e01b600052603260045260246000fdfea2646970667358221220971b4273df45f740d02d2edba9db531a3fe797afbb2d43d82d43f06626268fc364736f6c63430008090033",
  "linkReferences": {},
  "deployedLinkReferences": {}
}