{
  "_format": "hh-sol-artifact-1",
  "contractName": "Inventory",
  "sourceName": "contracts/Inventory.sol",
  "abi": [
    {
      "anonymous": false,
      "inputs": [
        {
          "indexed": false,
          "internalType": "address",
          "name": "buyer",
          "type": "address"
        },
        {
          "indexed": false,
          "internalType": "uint256",
          "name": "amount",
          "type": "uint256"
        }
      ],
      "name": "ItemPurchased",
      "type": "event"
    },
    {
      "inputs": [
        {
          "internalType": "uint256",
          "name": "_index",
          "type": "uint256"
        }
      ],
      "name": "buyDataSet",
      "outputs": [],
      "stateMutability": "payable",
      "type": "function"
    },
    {
      "inputs": [
        {
          "internalType": "address",
          "name": "_owner",
          "type": "address"
        },
        {
          "internalType": "string",
          "name": "_displayName",
          "type": "string"
        },
        {
          "internalType": "string",
          "name": "_FID",
          "type": "string"
        },
        {
          "internalType": "string",
          "name": "_description",
          "type": "string"
        },
        {
          "internalType": "uint256",
          "name": "_cost",
          "type": "uint256"
        }
      ],
      "name": "createDataSet",
      "outputs": [
        {
          "internalType": "uint256",
          "name": "",
          "type": "uint256"
        }
      ],
      "stateMutability": "nonpayable",
      "type": "function"
    },
    {
      "inputs": [],
      "name": "getAllDataSets",
      "outputs": [
        {
          "components": [
            {
              "internalType": "address payable",
              "name": "owner",
              "type": "address"
            },
            {
              "internalType": "string",
              "name": "displayName",
              "type": "string"
            },
            {
              "internalType": "string",
              "name": "FID",
              "type": "string"
            },
            {
              "internalType": "string",
              "name": "description",
              "type": "string"
            },
            {
              "internalType": "uint256",
              "name": "cost",
              "type": "uint256"
            },
            {
              "internalType": "address[]",
              "name": "authorizedUsers",
              "type": "address[]"
            }
          ],
          "internalType": "struct Inventory.DataSet[]",
          "name": "",
          "type": "tuple[]"
        }
      ],
      "stateMutability": "view",
      "type": "function"
    },
    {
      "inputs": [
        {
          "internalType": "uint256",
          "name": "_index",
          "type": "uint256"
        }
      ],
      "name": "getDataSet",
      "outputs": [
        {
          "components": [
            {
              "internalType": "address payable",
              "name": "owner",
              "type": "address"
            },
            {
              "internalType": "string",
              "name": "displayName",
              "type": "string"
            },
            {
              "internalType": "string",
              "name": "FID",
              "type": "string"
            },
            {
              "internalType": "string",
              "name": "description",
              "type": "string"
            },
            {
              "internalType": "uint256",
              "name": "cost",
              "type": "uint256"
            },
            {
              "internalType": "address[]",
              "name": "authorizedUsers",
              "type": "address[]"
            }
          ],
          "internalType": "struct Inventory.DataSet",
          "name": "",
          "type": "tuple"
        }
      ],
      "stateMutability": "view",
      "type": "function"
    },
    {
      "inputs": [],
      "name": "numberOfDataSets",
      "outputs": [
        {
          "internalType": "uint256",
          "name": "",
          "type": "uint256"
        }
      ],
      "stateMutability": "view",
      "type": "function"
    },
    {
      "inputs": [
        {
          "internalType": "uint256",
          "name": "",
          "type": "uint256"
        }
      ],
      "name": "sets",
      "outputs": [
        {
          "internalType": "address payable",
          "name": "owner",
          "type": "address"
        },
        {
          "internalType": "string",
          "name": "displayName",
          "type": "string"
        },
        {
          "internalType": "string",
          "name": "FID",
          "type": "string"
        },
        {
          "internalType": "string",
          "name": "description",
          "type": "string"
        },
        {
          "internalType": "uint256",
          "name": "cost",
          "type": "uint256"
        }
      ],
      "stateMutability": "view",
      "type": "function"
    }
  ],
  "bytecode": "0x6080604052600060015534801561001557600080fd5b50610fa2806100256000396000f3fe6080604052600436106100555760003560e01c806308dd0bc31461005a5780635b227f9b146100835780639a33fc17146100b4578063bb1af606146100c9578063bdaac056146100e9578063d32018cb14610116575b600080fd5b34801561006657600080fd5b5061007060015481565b6040519081526020015b60405180910390f35b34801561008f57600080fd5b506100a361009e366004610b8a565b610138565b60405161007a959493929190610bf0565b6100c76100c2366004610b8a565b61031c565b005b3480156100d557600080fd5b506100706100e4366004610cf0565b6103c4565b3480156100f557600080fd5b50610109610104366004610b8a565b610557565b60405161007a9190610e57565b34801561012257600080fd5b5061012b610805565b60405161007a9190610e71565b6000818154811061014857600080fd5b6000918252602090912060069091020180546001820180546001600160a01b0390921693509061017790610ed3565b80601f01602080910402602001604051908101604052809291908181526020018280546101a390610ed3565b80156101f05780601f106101c5576101008083540402835291602001916101f0565b820191906000526020600020905b8154815290600101906020018083116101d357829003601f168201915b50505050509080600201805461020590610ed3565b80601f016020809104026020016040519081016040528092919081815260200182805461023190610ed3565b801561027e5780601f106102535761010080835404028352916020019161027e565b820191906000526020600020905b81548152906001019060200180831161026157829003601f168201915b50505050509080600301805461029390610ed3565b80601f01602080910402602001604051908101604052809291908181526020018280546102bf90610ed3565b801561030c5780601f106102e15761010080835404028352916020019161030c565b820191906000526020600020905b8154815290600101906020018083116102ef57829003601f168201915b5050505050908060040154905085565b6000349050600080838154811061033557610335610f0e565b600091825260208220600690910201805460048201546040519294506001600160a01b0390911692839282156108fc029291818181858888f19350505050158015610384573d6000803e3d6000fd5b5060408051338152602081018590527f792fe07c0f3ce4ef42df79c4a2b07925168cddbaabf7a7ef1351f027a3760313910160405180910390a150505050565b6040805160018082528183019092526000918291906020808301908036833701905050905086816000815181106103fd576103fd610f0e565b6001600160a01b039283166020918202929092018101919091526040805160c0810182528a841681528083018a8152918101899052606081018890526080810187905260a081018590526000805460018101825590805281517f290decd9548b62a8d60345a988386fc84ba6bc95484008f6362f93160ef3e563600690920291820180546001600160a01b03191691909616178555915180519194936104c8937f290decd9548b62a8d60345a988386fc84ba6bc95484008f6362f93160ef3e5640192910190610a9c565b50604082015180516104e4916002840191602090910190610a9c565b5060608201518051610500916003840191602090910190610a9c565b506080820151600482015560a08201518051610526916005840191602090910190610b20565b5050600180549150600061053983610f3a565b91905055506001805461054c9190610f55565b979650505050505050565b6105996040518060c0016040528060006001600160a01b0316815260200160608152602001606081526020016060815260200160008152602001606081525090565b600082815481106105ac576105ac610f0e565b60009182526020918290206040805160c0810190915260069092020180546001600160a01b0316825260018101805492939192918401916105ec90610ed3565b80601f016020809104026020016040519081016040528092919081815260200182805461061890610ed3565b80156106655780601f1061063a57610100808354040283529160200191610665565b820191906000526020600020905b81548152906001019060200180831161064857829003601f168201915b5050505050815260200160028201805461067e90610ed3565b80601f01602080910402602001604051908101604052809291908181526020018280546106aa90610ed3565b80156106f75780601f106106cc576101008083540402835291602001916106f7565b820191906000526020600020905b8154815290600101906020018083116106da57829003601f168201915b5050505050815260200160038201805461071090610ed3565b80601f016020809104026020016040519081016040528092919081815260200182805461073c90610ed3565b80156107895780601f1061075e57610100808354040283529160200191610789565b820191906000526020600020905b81548152906001019060200180831161076c57829003601f168201915b5050505050815260200160048201548152602001600582018054806020026020016040519081016040528092919081815260200182805480156107f557602002820191906000526020600020905b81546001600160a01b031681526001909101906020018083116107d7575b5050505050815250509050919050565b60606000805480602002602001604051908101604052809291908181526020016000905b82821015610a935760008481526020908190206040805160c081019091526006850290910180546001600160a01b03168252600181018054929391929184019161087290610ed3565b80601f016020809104026020016040519081016040528092919081815260200182805461089e90610ed3565b80156108eb5780601f106108c0576101008083540402835291602001916108eb565b820191906000526020600020905b8154815290600101906020018083116108ce57829003601f168201915b5050505050815260200160028201805461090490610ed3565b80601f016020809104026020016040519081016040528092919081815260200182805461093090610ed3565b801561097d5780601f106109525761010080835404028352916020019161097d565b820191906000526020600020905b81548152906001019060200180831161096057829003601f168201915b5050505050815260200160038201805461099690610ed3565b80601f01602080910402602001604051908101604052809291908181526020018280546109c290610ed3565b8015610a0f5780601f106109e457610100808354040283529160200191610a0f565b820191906000526020600020905b8154815290600101906020018083116109f257829003601f168201915b505050505081526020016004820154815260200160058201805480602002602001604051908101604052809291908181526020018280548015610a7b57602002820191906000526020600020905b81546001600160a01b03168152600190910190602001808311610a5d575b50505050508152505081526020019060010190610829565b50505050905090565b828054610aa890610ed3565b90600052602060002090601f016020900481019282610aca5760008555610b10565b82601f10610ae357805160ff1916838001178555610b10565b82800160010185558215610b10579182015b82811115610b10578251825591602001919060010190610af5565b50610b1c929150610b75565b5090565b828054828255906000526020600020908101928215610b10579160200282015b82811115610b1057825182546001600160a01b0319166001600160a01b03909116178255602090920191600190910190610b40565b5b80821115610b1c5760008155600101610b76565b600060208284031215610b9c57600080fd5b5035919050565b6000815180845260005b81811015610bc957602081850181015186830182015201610bad565b81811115610bdb576000602083870101525b50601f01601f19169290920160200192915050565b6001600160a01b038616815260a060208201819052600090610c1490830187610ba3565b8281036040840152610c268187610ba3565b90508281036060840152610c3a8186610ba3565b9150508260808301529695505050505050565b634e487b7160e01b600052604160045260246000fd5b600082601f830112610c7457600080fd5b813567ffffffffffffffff80821115610c8f57610c8f610c4d565b604051601f8301601f19908116603f01168101908282118183101715610cb757610cb7610c4d565b81604052838152866020858801011115610cd057600080fd5b836020870160208301376000602085830101528094505050505092915050565b600080600080600060a08688031215610d0857600080fd5b85356001600160a01b0381168114610d1f57600080fd5b9450602086013567ffffffffffffffff80821115610d3c57600080fd5b610d4889838a01610c63565b95506040880135915080821115610d5e57600080fd5b610d6a89838a01610c63565b94506060880135915080821115610d8057600080fd5b50610d8d88828901610c63565b95989497509295608001359392505050565b600060018060a01b0380835116845260208084015160c082870152610dc760c0870182610ba3565b905060408501518682036040880152610de08282610ba3565b91505060608501518682036060880152610dfa8282610ba3565b9150506080850151608087015260a085015186820360a088015281815180845284840191508483019350600092505b80831015610e4b57835186168252928401926001929092019190840190610e29565b50979650505050505050565b602081526000610e6a6020830184610d9f565b9392505050565b6000602080830181845280855180835260408601915060408160051b870101925083870160005b82811015610ec657603f19888603018452610eb4858351610d9f565b94509285019290850190600101610e98565b5092979650505050505050565b600181811c90821680610ee757607f821691505b60208210811415610f0857634e487b7160e01b600052602260045260246000fd5b50919050565b634e487b7160e01b600052603260045260246000fd5b634e487b7160e01b600052601160045260246000fd5b6000600019821415610f4e57610f4e610f24565b5060010190565b600082821015610f6757610f67610f24565b50039056fea26469706673582212203e5d80b461d0cc1244123234a943918d3080436e226de2ab93f3392b00ec2ff964736f6c63430008090033",
  "linkReferences": {},
  "deployedLinkReferences": {}
}