{
  "_format": "hh-sol-artifact-1",
  "contractName": "Inventory",
  "sourceName": "contracts/Inventory.sol",
  "abi": [
    {
      "anonymous": false,
      "inputs": [
        {
          "indexed": false,
          "internalType": "address",
          "name": "buyer",
          "type": "address"
        },
        {
          "indexed": false,
          "internalType": "uint256",
          "name": "amount",
          "type": "uint256"
        }
      ],
      "name": "ItemPurchased",
      "type": "event"
    },
    {
      "inputs": [
        {
          "internalType": "uint256",
          "name": "_index",
          "type": "uint256"
        }
      ],
      "name": "buyDataSet",
      "outputs": [],
      "stateMutability": "payable",
      "type": "function"
    },
    {
      "inputs": [
        {
          "internalType": "address",
          "name": "_owner",
          "type": "address"
        },
        {
          "internalType": "string",
          "name": "_displayName",
          "type": "string"
        },
        {
          "internalType": "string",
          "name": "_FID",
          "type": "string"
        },
        {
          "internalType": "string",
          "name": "_description",
          "type": "string"
        },
        {
          "internalType": "uint256",
          "name": "_cost",
          "type": "uint256"
        }
      ],
      "name": "createDataSet",
      "outputs": [
        {
          "internalType": "uint256",
          "name": "",
          "type": "uint256"
        }
      ],
      "stateMutability": "nonpayable",
      "type": "function"
    },
    {
      "inputs": [],
      "name": "getAllDataSets",
      "outputs": [
        {
          "components": [
            {
              "internalType": "address payable",
              "name": "owner",
              "type": "address"
            },
            {
              "internalType": "string",
              "name": "displayName",
              "type": "string"
            },
            {
              "internalType": "string",
              "name": "FID",
              "type": "string"
            },
            {
              "internalType": "string",
              "name": "description",
              "type": "string"
            },
            {
              "internalType": "uint256",
              "name": "cost",
              "type": "uint256"
            },
            {
              "internalType": "address[]",
              "name": "authorizedUsers",
              "type": "address[]"
            }
          ],
          "internalType": "struct Inventory.DataSet[]",
          "name": "",
          "type": "tuple[]"
        }
      ],
      "stateMutability": "view",
      "type": "function"
    },
    {
      "inputs": [
        {
          "internalType": "uint256",
          "name": "_index",
          "type": "uint256"
        }
      ],
      "name": "getAuthorizedUsers",
      "outputs": [
        {
          "internalType": "address[]",
          "name": "",
          "type": "address[]"
        }
      ],
      "stateMutability": "view",
      "type": "function"
    },
    {
      "inputs": [
        {
          "internalType": "uint256",
          "name": "_index",
          "type": "uint256"
        }
      ],
      "name": "getDataSet",
      "outputs": [
        {
          "components": [
            {
              "internalType": "address payable",
              "name": "owner",
              "type": "address"
            },
            {
              "internalType": "string",
              "name": "displayName",
              "type": "string"
            },
            {
              "internalType": "string",
              "name": "FID",
              "type": "string"
            },
            {
              "internalType": "string",
              "name": "description",
              "type": "string"
            },
            {
              "internalType": "uint256",
              "name": "cost",
              "type": "uint256"
            },
            {
              "internalType": "address[]",
              "name": "authorizedUsers",
              "type": "address[]"
            }
          ],
          "internalType": "struct Inventory.DataSet",
          "name": "",
          "type": "tuple"
        }
      ],
      "stateMutability": "view",
      "type": "function"
    },
    {
      "inputs": [
        {
          "internalType": "address",
          "name": "_user",
          "type": "address"
        }
      ],
      "name": "getPurchasedSets",
      "outputs": [
        {
          "components": [
            {
              "internalType": "address payable",
              "name": "owner",
              "type": "address"
            },
            {
              "internalType": "string",
              "name": "displayName",
              "type": "string"
            },
            {
              "internalType": "string",
              "name": "FID",
              "type": "string"
            },
            {
              "internalType": "string",
              "name": "description",
              "type": "string"
            },
            {
              "internalType": "uint256",
              "name": "cost",
              "type": "uint256"
            },
            {
              "internalType": "address[]",
              "name": "authorizedUsers",
              "type": "address[]"
            }
          ],
          "internalType": "struct Inventory.DataSet[]",
          "name": "",
          "type": "tuple[]"
        }
      ],
      "stateMutability": "view",
      "type": "function"
    },
    {
      "inputs": [],
      "name": "numberOfDataSets",
      "outputs": [
        {
          "internalType": "uint256",
          "name": "",
          "type": "uint256"
        }
      ],
      "stateMutability": "view",
      "type": "function"
    },
    {
      "inputs": [
        {
          "internalType": "uint256",
          "name": "",
          "type": "uint256"
        }
      ],
      "name": "sets",
      "outputs": [
        {
          "internalType": "address payable",
          "name": "owner",
          "type": "address"
        },
        {
          "internalType": "string",
          "name": "displayName",
          "type": "string"
        },
        {
          "internalType": "string",
          "name": "FID",
          "type": "string"
        },
        {
          "internalType": "string",
          "name": "description",
          "type": "string"
        },
        {
          "internalType": "uint256",
          "name": "cost",
          "type": "uint256"
        }
      ],
      "stateMutability": "view",
      "type": "function"
    }
  ],
  "bytecode": "0x6080604052600060015534801561001557600080fd5b506112a7806100256000396000f3fe60806040526004361061007b5760003560e01c8063bb1af6061161004e578063bb1af6061461011c578063bdaac0561461013c578063d32018cb14610169578063d35e05861461017e57600080fd5b806308dd0bc3146100805780635b227f9b146100a95780639a33fc17146100da578063ad6cab3f146100ef575b600080fd5b34801561008c57600080fd5b5061009660015481565b6040519081526020015b60405180910390f35b3480156100b557600080fd5b506100c96100c4366004610e19565b6101ab565b6040516100a0959493929190610e7f565b6100ed6100e8366004610e19565b61038f565b005b3480156100fb57600080fd5b5061010f61010a366004610ef8565b610488565b6040516100a09190610fd2565b34801561012857600080fd5b506100966101373660046110d7565b610591565b34801561014857600080fd5b5061015c610157366004610e19565b61075b565b6040516100a09190611178565b34801561017557600080fd5b5061010f610a09565b34801561018a57600080fd5b5061019e610199366004610e19565b610ca0565b6040516100a0919061118b565b600081815481106101bb57600080fd5b6000918252602090912060069091020180546001820180546001600160a01b039092169350906101ea906111d8565b80601f0160208091040260200160405190810160405280929190818152602001828054610216906111d8565b80156102635780601f1061023857610100808354040283529160200191610263565b820191906000526020600020905b81548152906001019060200180831161024657829003601f168201915b505050505090806002018054610278906111d8565b80601f01602080910402602001604051908101604052809291908181526020018280546102a4906111d8565b80156102f15780601f106102c6576101008083540402835291602001916102f1565b820191906000526020600020905b8154815290600101906020018083116102d457829003601f168201915b505050505090806003018054610306906111d8565b80601f0160208091040260200160405190810160405280929190818152602001828054610332906111d8565b801561037f5780601f106103545761010080835404028352916020019161037f565b820191906000526020600020905b81548152906001019060200180831161036257829003601f168201915b5050505050908060040154905085565b60008054349133918190859081106103a9576103a9611213565b600091825260208220600690910201805460048201546040519294506001600160a01b0390911692839282156108fc029291818181858888f193505050501580156103f8573d6000803e3d6000fd5b5060058201805484919061040e9060019061123f565b8154811061041e5761041e611213565b60009182526020918290200180546001600160a01b0319166001600160a01b039390931692909217909155604080513381529182018690527f792fe07c0f3ce4ef42df79c4a2b07925168cddbaabf7a7ef1351f027a3760313910160405180910390a15050505050565b6060600080610495610a09565b9050606060005b60015481116105885760005b8382815181106104ba576104ba611213565b602002602001015160a00151518111610575578382815181106104df576104df611213565b602002602001015160a0015181815181106104fc576104fc611213565b60200260200101516001600160a01b0316876001600160a01b031614156105635783828151811061052f5761052f611213565b602002602001015183868151811061054957610549611213565b6020026020010181905250848061055f90611256565b9550505b8061056d81611256565b9150506104a8565b508061058081611256565b91505061049c565b50949350505050565b6040805160018082528183019092526000918291906020808301908036833701905050905086816000815181106105ca576105ca611213565b60200260200101906001600160a01b031690816001600160a01b0316815250506060878160008151811061060057610600611213565b6001600160a01b039283166020918202929092018101919091526040805160c0810182528b841681528083018b81529181018a9052606081018990526080810188905260a081018690526000805460018101825590805281517f290decd9548b62a8d60345a988386fc84ba6bc95484008f6362f93160ef3e563600690920291820180546001600160a01b03191691909616178555915180519194936106cb937f290decd9548b62a8d60345a988386fc84ba6bc95484008f6362f93160ef3e5640192910190610d2b565b50604082015180516106e7916002840191602090910190610d2b565b5060608201518051610703916003840191602090910190610d2b565b506080820151600482015560a08201518051610729916005840191602090910190610daf565b5050600180549150600061073c83611256565b91905055506001805461074f919061123f565b98975050505050505050565b61079d6040518060c0016040528060006001600160a01b0316815260200160608152602001606081526020016060815260200160008152602001606081525090565b600082815481106107b0576107b0611213565b60009182526020918290206040805160c0810190915260069092020180546001600160a01b0316825260018101805492939192918401916107f0906111d8565b80601f016020809104026020016040519081016040528092919081815260200182805461081c906111d8565b80156108695780601f1061083e57610100808354040283529160200191610869565b820191906000526020600020905b81548152906001019060200180831161084c57829003601f168201915b50505050508152602001600282018054610882906111d8565b80601f01602080910402602001604051908101604052809291908181526020018280546108ae906111d8565b80156108fb5780601f106108d0576101008083540402835291602001916108fb565b820191906000526020600020905b8154815290600101906020018083116108de57829003601f168201915b50505050508152602001600382018054610914906111d8565b80601f0160208091040260200160405190810160405280929190818152602001828054610940906111d8565b801561098d5780601f106109625761010080835404028352916020019161098d565b820191906000526020600020905b81548152906001019060200180831161097057829003601f168201915b5050505050815260200160048201548152602001600582018054806020026020016040519081016040528092919081815260200182805480156109f957602002820191906000526020600020905b81546001600160a01b031681526001909101906020018083116109db575b5050505050815250509050919050565b60606000805480602002602001604051908101604052809291908181526020016000905b82821015610c975760008481526020908190206040805160c081019091526006850290910180546001600160a01b031682526001810180549293919291840191610a76906111d8565b80601f0160208091040260200160405190810160405280929190818152602001828054610aa2906111d8565b8015610aef5780601f10610ac457610100808354040283529160200191610aef565b820191906000526020600020905b815481529060010190602001808311610ad257829003601f168201915b50505050508152602001600282018054610b08906111d8565b80601f0160208091040260200160405190810160405280929190818152602001828054610b34906111d8565b8015610b815780601f10610b5657610100808354040283529160200191610b81565b820191906000526020600020905b815481529060010190602001808311610b6457829003601f168201915b50505050508152602001600382018054610b9a906111d8565b80601f0160208091040260200160405190810160405280929190818152602001828054610bc6906111d8565b8015610c135780601f10610be857610100808354040283529160200191610c13565b820191906000526020600020905b815481529060010190602001808311610bf657829003601f168201915b505050505081526020016004820154815260200160058201805480602002602001604051908101604052809291908181526020018280548015610c7f57602002820191906000526020600020905b81546001600160a01b03168152600190910190602001808311610c61575b50505050508152505081526020019060010190610a2d565b50505050905090565b60606000808381548110610cb657610cb6611213565b9060005260206000209060060201905080600501805480602002602001604051908101604052809291908181526020018280548015610d1e57602002820191906000526020600020905b81546001600160a01b03168152600190910190602001808311610d00575b5050505050915050919050565b828054610d37906111d8565b90600052602060002090601f016020900481019282610d595760008555610d9f565b82601f10610d7257805160ff1916838001178555610d9f565b82800160010185558215610d9f579182015b82811115610d9f578251825591602001919060010190610d84565b50610dab929150610e04565b5090565b828054828255906000526020600020908101928215610d9f579160200282015b82811115610d9f57825182546001600160a01b0319166001600160a01b03909116178255602090920191600190910190610dcf565b5b80821115610dab5760008155600101610e05565b600060208284031215610e2b57600080fd5b5035919050565b6000815180845260005b81811015610e5857602081850181015186830182015201610e3c565b81811115610e6a576000602083870101525b50601f01601f19169290920160200192915050565b6001600160a01b038616815260a060208201819052600090610ea390830187610e32565b8281036040840152610eb58187610e32565b90508281036060840152610ec98186610e32565b9150508260808301529695505050505050565b80356001600160a01b0381168114610ef357600080fd5b919050565b600060208284031215610f0a57600080fd5b610f1382610edc565b9392505050565b600060018060a01b0380835116845260208084015160c082870152610f4260c0870182610e32565b905060408501518682036040880152610f5b8282610e32565b91505060608501518682036060880152610f758282610e32565b9150506080850151608087015260a085015186820360a088015281815180845284840191508483019350600092505b80831015610fc657835186168252928401926001929092019190840190610fa4565b50979650505050505050565b6000602080830181845280855180835260408601915060408160051b870101925083870160005b8281101561102757603f19888603018452611015858351610f1a565b94509285019290850190600101610ff9565b5092979650505050505050565b634e487b7160e01b600052604160045260246000fd5b600082601f83011261105b57600080fd5b813567ffffffffffffffff8082111561107657611076611034565b604051601f8301601f19908116603f0116810190828211818310171561109e5761109e611034565b816040528381528660208588010111156110b757600080fd5b836020870160208301376000602085830101528094505050505092915050565b600080600080600060a086880312156110ef57600080fd5b6110f886610edc565b9450602086013567ffffffffffffffff8082111561111557600080fd5b61112189838a0161104a565b9550604088013591508082111561113757600080fd5b61114389838a0161104a565b9450606088013591508082111561115957600080fd5b506111668882890161104a565b95989497509295608001359392505050565b602081526000610f136020830184610f1a565b6020808252825182820181905260009190848201906040850190845b818110156111cc5783516001600160a01b0316835292840192918401916001016111a7565b50909695505050505050565b600181811c908216806111ec57607f821691505b6020821081141561120d57634e487b7160e01b600052602260045260246000fd5b50919050565b634e487b7160e01b600052603260045260246000fd5b634e487b7160e01b600052601160045260246000fd5b60008282101561125157611251611229565b500390565b600060001982141561126a5761126a611229565b506001019056fea26469706673582212208e423a79a279517ab3a4f50461d611bfe790501cb1d70661cc0252729f8d4f0964736f6c63430008090033",
  "linkReferences": {},
  "deployedLinkReferences": {}
}